{
  "contractName": "VotingSystem",
  "abi": [
    {
      "inputs": [],
      "stateMutability": "nonpayable",
      "type": "constructor"
    },
    {
      "anonymous": false,
      "inputs": [
        {
          "indexed": true,
          "internalType": "uint256",
          "name": "electionId",
          "type": "uint256"
        },
        {
          "indexed": true,
          "internalType": "uint256",
          "name": "candidateId",
          "type": "uint256"
        },
        {
          "indexed": false,
          "internalType": "string",
          "name": "name",
          "type": "string"
        }
      ],
      "name": "CandidateRegistered",
      "type": "event"
    },
    {
      "anonymous": false,
      "inputs": [
        {
          "indexed": true,
          "internalType": "uint256",
          "name": "electionId",
          "type": "uint256"
        },
        {
          "indexed": false,
          "internalType": "string",
          "name": "title",
          "type": "string"
        }
      ],
      "name": "ElectionCreated",
      "type": "event"
    },
    {
      "anonymous": false,
      "inputs": [
        {
          "indexed": true,
          "internalType": "uint256",
          "name": "electionId",
          "type": "uint256"
        }
      ],
      "name": "ElectionEnded",
      "type": "event"
    },
    {
      "anonymous": false,
      "inputs": [
        {
          "indexed": true,
          "internalType": "uint256",
          "name": "electionId",
          "type": "uint256"
        }
      ],
      "name": "ElectionStarted",
      "type": "event"
    },
    {
      "anonymous": false,
      "inputs": [
        {
          "indexed": true,
          "internalType": "uint256",
          "name": "electionId",
          "type": "uint256"
        }
      ],
      "name": "ResultsPublished",
      "type": "event"
    },
    {
      "anonymous": false,
      "inputs": [
        {
          "indexed": true,
          "internalType": "uint256",
          "name": "electionId",
          "type": "uint256"
        },
        {
          "indexed": true,
          "internalType": "uint256",
          "name": "candidateId",
          "type": "uint256"
        },
        {
          "indexed": true,
          "internalType": "address",
          "name": "voter",
          "type": "address"
        }
      ],
      "name": "VoteCast",
      "type": "event"
    },
    {
      "inputs": [],
      "name": "admin",
      "outputs": [
        {
          "internalType": "address",
          "name": "",
          "type": "address"
        }
      ],
      "stateMutability": "view",
      "type": "function"
    },
    {
      "inputs": [],
      "name": "candidateCounter",
      "outputs": [
        {
          "internalType": "uint256",
          "name": "",
          "type": "uint256"
        }
      ],
      "stateMutability": "view",
      "type": "function"
    },
    {
      "inputs": [
        {
          "internalType": "uint256",
          "name": "",
          "type": "uint256"
        },
        {
          "internalType": "uint256",
          "name": "",
          "type": "uint256"
        }
      ],
      "name": "candidates",
      "outputs": [
        {
          "internalType": "uint256",
          "name": "id",
          "type": "uint256"
        },
        {
          "internalType": "string",
          "name": "name",
          "type": "string"
        },
        {
          "internalType": "string",
          "name": "party",
          "type": "string"
        },
        {
          "internalType": "uint256",
          "name": "voteCount",
          "type": "uint256"
        },
        {
          "internalType": "bool",
          "name": "isActive",
          "type": "bool"
        }
      ],
      "stateMutability": "view",
      "type": "function"
    },
    {
      "inputs": [
        {
          "internalType": "uint256",
          "name": "",
          "type": "uint256"
        }
      ],
      "name": "electionCandidateCount",
      "outputs": [
        {
          "internalType": "uint256",
          "name": "",
          "type": "uint256"
        }
      ],
      "stateMutability": "view",
      "type": "function"
    },
    {
      "inputs": [],
      "name": "electionCounter",
      "outputs": [
        {
          "internalType": "uint256",
          "name": "",
          "type": "uint256"
        }
      ],
      "stateMutability": "view",
      "type": "function"
    },
    {
      "inputs": [
        {
          "internalType": "uint256",
          "name": "",
          "type": "uint256"
        }
      ],
      "name": "elections",
      "outputs": [
        {
          "internalType": "uint256",
          "name": "id",
          "type": "uint256"
        },
        {
          "internalType": "string",
          "name": "title",
          "type": "string"
        },
        {
          "internalType": "string",
          "name": "description",
          "type": "string"
        },
        {
          "internalType": "uint256",
          "name": "startTime",
          "type": "uint256"
        },
        {
          "internalType": "uint256",
          "name": "endTime",
          "type": "uint256"
        },
        {
          "internalType": "bool",
          "name": "isActive",
          "type": "bool"
        },
        {
          "internalType": "bool",
          "name": "resultsPublished",
          "type": "bool"
        }
      ],
      "stateMutability": "view",
      "type": "function"
    },
    {
      "inputs": [
        {
          "internalType": "address",
          "name": "",
          "type": "address"
        },
        {
          "internalType": "uint256",
          "name": "",
          "type": "uint256"
        }
      ],
      "name": "hasVoted",
      "outputs": [
        {
          "internalType": "bool",
          "name": "",
          "type": "bool"
        }
      ],
      "stateMutability": "view",
      "type": "function"
    },
    {
      "inputs": [],
      "name": "voteCounter",
      "outputs": [
        {
          "internalType": "uint256",
          "name": "",
          "type": "uint256"
        }
      ],
      "stateMutability": "view",
      "type": "function"
    },
    {
      "inputs": [
        {
          "internalType": "string",
          "name": "",
          "type": "string"
        }
      ],
      "name": "voterAddresses",
      "outputs": [
        {
          "internalType": "address",
          "name": "",
          "type": "address"
        }
      ],
      "stateMutability": "view",
      "type": "function"
    },
    {
      "inputs": [
        {
          "internalType": "uint256",
          "name": "",
          "type": "uint256"
        }
      ],
      "name": "votes",
      "outputs": [
        {
          "internalType": "uint256",
          "name": "electionId",
          "type": "uint256"
        },
        {
          "internalType": "uint256",
          "name": "candidateId",
          "type": "uint256"
        },
        {
          "internalType": "address",
          "name": "voter",
          "type": "address"
        },
        {
          "internalType": "uint256",
          "name": "timestamp",
          "type": "uint256"
        },
        {
          "internalType": "bytes32",
          "name": "voteHash",
          "type": "bytes32"
        }
      ],
      "stateMutability": "view",
      "type": "function"
    },
    {
      "inputs": [
        {
          "internalType": "string",
          "name": "_title",
          "type": "string"
        },
        {
          "internalType": "string",
          "name": "_description",
          "type": "string"
        },
        {
          "internalType": "uint256",
          "name": "_startTime",
          "type": "uint256"
        },
        {
          "internalType": "uint256",
          "name": "_endTime",
          "type": "uint256"
        }
      ],
      "name": "createElection",
      "outputs": [],
      "stateMutability": "nonpayable",
      "type": "function"
    },
    {
      "inputs": [
        {
          "internalType": "uint256",
          "name": "_electionId",
          "type": "uint256"
        },
        {
          "internalType": "string",
          "name": "_name",
          "type": "string"
        },
        {
          "internalType": "string",
          "name": "_party",
          "type": "string"
        }
      ],
      "name": "registerCandidate",
      "outputs": [],
      "stateMutability": "nonpayable",
      "type": "function"
    },
    {
      "inputs": [
        {
          "internalType": "uint256",
          "name": "_electionId",
          "type": "uint256"
        }
      ],
      "name": "startElection",
      "outputs": [],
      "stateMutability": "nonpayable",
      "type": "function"
    },
    {
      "inputs": [
        {
          "internalType": "uint256",
          "name": "_electionId",
          "type": "uint256"
        }
      ],
      "name": "endElection",
      "outputs": [],
      "stateMutability": "nonpayable",
      "type": "function"
    },
    {
      "inputs": [
        {
          "internalType": "string",
          "name": "_nationalId",
          "type": "string"
        },
        {
          "internalType": "address",
          "name": "_voterAddress",
          "type": "address"
        }
      ],
      "name": "registerVoter",
      "outputs": [],
      "stateMutability": "nonpayable",
      "type": "function"
    },
    {
      "inputs": [
        {
          "internalType": "uint256",
          "name": "_electionId",
          "type": "uint256"
        },
        {
          "internalType": "uint256",
          "name": "_candidateId",
          "type": "uint256"
        },
        {
          "internalType": "string",
          "name": "_nationalId",
          "type": "string"
        }
      ],
      "name": "castVote",
      "outputs": [],
      "stateMutability": "nonpayable",
      "type": "function"
    },
    {
      "inputs": [
        {
          "internalType": "uint256",
          "name": "_electionId",
          "type": "uint256"
        }
      ],
      "name": "publishResults",
      "outputs": [],
      "stateMutability": "nonpayable",
      "type": "function"
    },
    {
      "inputs": [
        {
          "internalType": "uint256",
          "name": "_electionId",
          "type": "uint256"
        }
      ],
      "name": "getElectionResults",
      "outputs": [
        {
          "internalType": "string[]",
          "name": "candidateNames",
          "type": "string[]"
        },
        {
          "internalType": "string[]",
          "name": "candidateParties",
          "type": "string[]"
        },
        {
          "internalType": "uint256[]",
          "name": "voteCounts",
          "type": "uint256[]"
        }
      ],
      "stateMutability": "view",
      "type": "function"
    },
    {
      "inputs": [
        {
          "internalType": "uint256",
          "name": "_electionId",
          "type": "uint256"
        }
      ],
      "name": "getElectionCandidates",
      "outputs": [
        {
          "internalType": "uint256[]",
          "name": "candidateIds",
          "type": "uint256[]"
        },
        {
          "internalType": "string[]",
          "name": "candidateNames",
          "type": "string[]"
        },
        {
          "internalType": "string[]",
          "name": "candidateParties",
          "type": "string[]"
        }
      ],
      "stateMutability": "view",
      "type": "function"
    },
    {
      "inputs": [
        {
          "internalType": "address",
          "name": "_voter",
          "type": "address"
        },
        {
          "internalType": "uint256",
          "name": "_electionId",
          "type": "uint256"
        }
      ],
      "name": "hasVoterVoted",
      "outputs": [
        {
          "internalType": "bool",
          "name": "",
          "type": "bool"
        }
      ],
      "stateMutability": "view",
      "type": "function"
    },
    {
      "inputs": [
        {
          "internalType": "uint256",
          "name": "_electionId",
          "type": "uint256"
        }
      ],
      "name": "getTotalVotes",
      "outputs": [
        {
          "internalType": "uint256",
          "name": "",
          "type": "uint256"
        }
      ],
      "stateMutability": "view",
      "type": "function"
    }
  ],
  "bytecode": "0x608060405234801561000f575f80fd5b50335f806101000a81548173ffffffffffffffffffffffffffffffffffffffff021916908373ffffffffffffffffffffffffffffffffffffffff1602179055505f6001819055505f6002819055505f60038190555061373d806100715f395ff3fe608060405234801561000f575f80fd5b5060043610610135575f3560e01c806361e37417116100b65780639b541f761161007a5780639b541f76146103935780639c98bcbb146103c3578063bd5b5faf146103df578063bfad9cc0146103fb578063e8ededa614610417578063f851a4401461044957610135565b806361e37417146102d95780636d32dc4b146102f75780637ad36e84146103135780637de142421461032f57806383afc8861461036357610135565b80634a075de2116100fd5780634a075de214610203578063599f36d11461021f5780635df813301461023d5780635e12845e146102715780635e6fef01146102a357610135565b806315e36dff1461013957806324f99b1e146101695780632ce35e11146101855780633bc990db146101b557806342545825146101d3575b5f80fd5b610153600480360381019061014e9190612173565b610467565b60405161016091906121ad565b60405180910390f35b610183600480360381019061017e9190612302565b61047c565b005b61019f600480360381019061019a9190612173565b6109dd565b6040516101ac91906121ad565b60405180910390f35b6101bd610aa2565b6040516101ca91906121ad565b60405180910390f35b6101ed60048036038101906101e891906123c8565b610aa8565b6040516101fa9190612420565b60405180910390f35b61021d60048036038101906102189190612439565b610ad2565b005b610227610bbf565b60405161023491906121ad565b60405180910390f35b61025760048036038101906102529190612173565b610bc5565b6040516102689594939291906124ba565b60405180910390f35b61028b60048036038101906102869190612173565b610c16565b60405161029a939291906126f7565b60405180910390f35b6102bd60048036038101906102b89190612173565b610f8c565b6040516102d09796959493929190612789565b60405180910390f35b6102e16110ef565b6040516102ee91906121ad565b60405180910390f35b610311600480360381019061030c9190612173565b6110f5565b005b61032d60048036038101906103289190612804565b6112e4565b005b610349600480360381019061034491906128a0565b611522565b60405161035a9594939291906128de565b60405180910390f35b61037d6004803603810190610378919061293d565b611677565b60405161038a9190612984565b60405180910390f35b6103ad60048036038101906103a891906123c8565b6116bf565b6040516103ba9190612420565b60405180910390f35b6103dd60048036038101906103d89190612173565b611721565b005b6103f960048036038101906103f4919061299d565b6118bb565b005b61041560048036038101906104109190612173565b611b35565b005b610431600480360381019061042c9190612173565b611d34565b60405161044093929190612a25565b60405180910390f35b61045161210c565b60405161045e9190612984565b60405180910390f35b6006602052805f5260405f205f915090505481565b82600154811115801561048e57505f81115b6104cd576040517f08c379a00000000000000000000000000000000000000000000000000000000081526004016104c490612ab9565b60405180910390fd5b8360045f8281526020019081526020015f206005015f9054906101000a900460ff1661052e576040517f08c379a000000000000000000000000000000000000000000000000000000000815260040161052590612b21565b60405180910390fd5b60045f8281526020019081526020015f2060030154421015610585576040517f08c379a000000000000000000000000000000000000000000000000000000000815260040161057c90612b89565b60405180910390fd5b60045f8281526020019081526020015f20600401544211156105dc576040517f08c379a00000000000000000000000000000000000000000000000000000000081526004016105d390612bf1565b60405180910390fd5b3373ffffffffffffffffffffffffffffffffffffffff166009846040516106039190612c49565b90815260200160405180910390205f9054906101000a900473ffffffffffffffffffffffffffffffffffffffff1673ffffffffffffffffffffffffffffffffffffffff1614610687576040517f08c379a000000000000000000000000000000000000000000000000000000000815260040161067e90612ccf565b60405180910390fd5b60075f3373ffffffffffffffffffffffffffffffffffffffff1673ffffffffffffffffffffffffffffffffffffffff1681526020019081526020015f205f8681526020019081526020015f205f9054906101000a900460ff1615610720576040517f08c379a000000000000000000000000000000000000000000000000000000000815260040161071790612d5d565b60405180910390fd5b60065f8681526020019081526020015f2054841115801561074057505f84115b61077f576040517f08c379a000000000000000000000000000000000000000000000000000000000815260040161077690612dc5565b60405180910390fd5b60055f8681526020019081526020015f205f8581526020019081526020015f206004015f9054906101000a900460ff166107ee576040517f08c379a00000000000000000000000000000000000000000000000000000000081526004016107e590612e2d565b60405180910390fd5b600160075f3373ffffffffffffffffffffffffffffffffffffffff1673ffffffffffffffffffffffffffffffffffffffff1681526020019081526020015f205f8781526020019081526020015f205f6101000a81548160ff02191690831515021790555060055f8681526020019081526020015f205f8581526020019081526020015f206003015f81548092919061088590612e78565b919050555060035f81548092919061089c90612e78565b91905055505f858533426040516020016108b99493929190612f24565b6040516020818303038152906040528051906020012090506040518060a001604052808781526020018681526020013373ffffffffffffffffffffffffffffffffffffffff1681526020014281526020018281525060085f60035481526020019081526020015f205f820151815f0155602082015181600101556040820151816002015f6101000a81548173ffffffffffffffffffffffffffffffffffffffff021916908373ffffffffffffffffffffffffffffffffffffffff16021790555060608201518160030155608082015181600401559050503373ffffffffffffffffffffffffffffffffffffffff1685877f7fe1d4e6b34e228b5dc059fcdc037c71b216fb2417f47c171e505144a5e4f5fc60405160405180910390a4505050505050565b5f8160015481111580156109f057505f81115b610a2f576040517f08c379a0000000000000000000000000000000000000000000000000000000008152600401610a2690612ab9565b60405180910390fd5b5f8060065f8681526020019081526020015f205490505f600190505b818111610a965760055f8781526020019081526020015f205f8281526020019081526020015f206003015483610a819190612f71565b92508080610a8e90612e78565b915050610a4b565b50819350505050919050565b60025481565b6007602052815f5260405f20602052805f5260405f205f915091509054906101000a900460ff1681565b5f8054906101000a900473ffffffffffffffffffffffffffffffffffffffff1673ffffffffffffffffffffffffffffffffffffffff163373ffffffffffffffffffffffffffffffffffffffff1614610b5f576040517f08c379a0000000000000000000000000000000000000000000000000000000008152600401610b5690613014565b60405180910390fd5b80600983604051610b709190612c49565b90815260200160405180910390205f6101000a81548173ffffffffffffffffffffffffffffffffffffffff021916908373ffffffffffffffffffffffffffffffffffffffff1602179055505050565b60035481565b6008602052805f5260405f205f91509050805f015490806001015490806002015f9054906101000a900473ffffffffffffffffffffffffffffffffffffffff16908060030154908060040154905085565b6060806060836001548111158015610c2d57505f81115b610c6c576040517f08c379a0000000000000000000000000000000000000000000000000000000008152600401610c6390612ab9565b60405180910390fd5b5f60065f8781526020019081526020015f205490508067ffffffffffffffff811115610c9b57610c9a6121de565b5b604051908082528060200260200182016040528015610cc95781602001602082028036833780820191505090505b5094508067ffffffffffffffff811115610ce657610ce56121de565b5b604051908082528060200260200182016040528015610d1957816020015b6060815260200190600190039081610d045790505b5093508067ffffffffffffffff811115610d3657610d356121de565b5b604051908082528060200260200182016040528015610d6957816020015b6060815260200190600190039081610d545790505b5092505f600190505b818111610f825760055f8881526020019081526020015f205f8281526020019081526020015f205f015486600183610daa9190613032565b81518110610dbb57610dba613065565b5b60200260200101818152505060055f8881526020019081526020015f205f8281526020019081526020015f206001018054610df5906130bf565b80601f0160208091040260200160405190810160405280929190818152602001828054610e21906130bf565b8015610e6c5780601f10610e4357610100808354040283529160200191610e6c565b820191905f5260205f20905b815481529060010190602001808311610e4f57829003601f168201915b505050505085600183610e7f9190613032565b81518110610e9057610e8f613065565b5b602002602001018190525060055f8881526020019081526020015f205f8281526020019081526020015f206002018054610ec9906130bf565b80601f0160208091040260200160405190810160405280929190818152602001828054610ef5906130bf565b8015610f405780601f10610f1757610100808354040283529160200191610f40565b820191905f5260205f20905b815481529060010190602001808311610f2357829003601f168201915b505050505084600183610f539190613032565b81518110610f6457610f63613065565b5b60200260200101819052508080610f7a90612e78565b915050610d72565b5050509193909250565b6004602052805f5260405f205f91509050805f015490806001018054610fb1906130bf565b80601f0160208091040260200160405190810160405280929190818152602001828054610fdd906130bf565b80156110285780601f10610fff57610100808354040283529160200191611028565b820191905f5260205f20905b81548152906001019060200180831161100b57829003601f168201915b50505050509080600201805461103d906130bf565b80601f0160208091040260200160405190810160405280929190818152602001828054611069906130bf565b80156110b45780601f1061108b576101008083540402835291602001916110b4565b820191905f5260205f20905b81548152906001019060200180831161109757829003601f168201915b505050505090806003015490806004015490806005015f9054906101000a900460ff16908060050160019054906101000a900460ff16905087565b60015481565b5f8054906101000a900473ffffffffffffffffffffffffffffffffffffffff1673ffffffffffffffffffffffffffffffffffffffff163373ffffffffffffffffffffffffffffffffffffffff1614611182576040517f08c379a000000000000000000000000000000000000000000000000000000000815260040161117990613014565b60405180910390fd5b80600154811115801561119457505f81115b6111d3576040517f08c379a00000000000000000000000000000000000000000000000000000000081526004016111ca90612ab9565b60405180910390fd5b60045f8381526020019081526020015f206005015f9054906101000a900460ff1615611234576040517f08c379a000000000000000000000000000000000000000000000000000000000815260040161122b90613139565b60405180910390fd5b5f60065f8481526020019081526020015f205411611287576040517f08c379a000000000000000000000000000000000000000000000000000000000815260040161127e906131a1565b60405180910390fd5b600160045f8481526020019081526020015f206005015f6101000a81548160ff021916908315150217905550817f159eee87222a0489c529f2153c26ad65d718f2cc33ebaa8d399d1dd5b39facaa60405160405180910390a25050565b5f8054906101000a900473ffffffffffffffffffffffffffffffffffffffff1673ffffffffffffffffffffffffffffffffffffffff163373ffffffffffffffffffffffffffffffffffffffff1614611371576040517f08c379a000000000000000000000000000000000000000000000000000000000815260040161136890613014565b60405180910390fd5b8082106113b3576040517f08c379a00000000000000000000000000000000000000000000000000000000081526004016113aa9061322f565b60405180910390fd5b4281116113f5576040517f08c379a00000000000000000000000000000000000000000000000000000000081526004016113ec90613297565b60405180910390fd5b60015f81548092919061140790612e78565b91905055506040518060e0016040528060015481526020018581526020018481526020018381526020018281526020015f151581526020015f151581525060045f60015481526020019081526020015f205f820151815f015560208201518160010190816114759190613452565b50604082015181600201908161148b9190613452565b50606082015181600301556080820151816004015560a0820151816005015f6101000a81548160ff02191690831515021790555060c08201518160050160016101000a81548160ff0219169083151502179055509050506001547f52be7c4e77b4de76b7607d621492061fe13b58597e72dfb5e51ab8f6187ed141856040516115149190613521565b60405180910390a250505050565b6005602052815f5260405f20602052805f5260405f205f9150915050805f015490806001018054611552906130bf565b80601f016020809104026020016040519081016040528092919081815260200182805461157e906130bf565b80156115c95780601f106115a0576101008083540402835291602001916115c9565b820191905f5260205f20905b8154815290600101906020018083116115ac57829003601f168201915b5050505050908060020180546115de906130bf565b80601f016020809104026020016040519081016040528092919081815260200182805461160a906130bf565b80156116555780601f1061162c57610100808354040283529160200191611655565b820191905f5260205f20905b81548152906001019060200180831161163857829003601f168201915b505050505090806003015490806004015f9054906101000a900460ff16905085565b6009818051602081018201805184825260208301602085012081835280955050505050505f915054906101000a900473ffffffffffffffffffffffffffffffffffffffff1681565b5f60075f8473ffffffffffffffffffffffffffffffffffffffff1673ffffffffffffffffffffffffffffffffffffffff1681526020019081526020015f205f8381526020019081526020015f205f9054906101000a900460ff16905092915050565b5f8054906101000a900473ffffffffffffffffffffffffffffffffffffffff1673ffffffffffffffffffffffffffffffffffffffff163373ffffffffffffffffffffffffffffffffffffffff16146117ae576040517f08c379a00000000000000000000000000000000000000000000000000000000081526004016117a590613014565b60405180910390fd5b8060015481111580156117c057505f81115b6117ff576040517f08c379a00000000000000000000000000000000000000000000000000000000081526004016117f690612ab9565b60405180910390fd5b60045f8381526020019081526020015f206005015f9054906101000a900460ff1661185f576040517f08c379a000000000000000000000000000000000000000000000000000000000815260040161185690612b21565b60405180910390fd5b5f60045f8481526020019081526020015f206005015f6101000a81548160ff021916908315150217905550817f562cd572b2ba3b666cd989fc4ca98419ec81e75f04528df9d9d76fdb7807ee7160405160405180910390a25050565b5f8054906101000a900473ffffffffffffffffffffffffffffffffffffffff1673ffffffffffffffffffffffffffffffffffffffff163373ffffffffffffffffffffffffffffffffffffffff1614611948576040517f08c379a000000000000000000000000000000000000000000000000000000000815260040161193f90613014565b60405180910390fd5b82600154811115801561195a57505f81115b611999576040517f08c379a000000000000000000000000000000000000000000000000000000000815260040161199090612ab9565b60405180910390fd5b60045f8581526020019081526020015f206005015f9054906101000a900460ff16156119fa576040517f08c379a00000000000000000000000000000000000000000000000000000000081526004016119f1906135b1565b60405180910390fd5b60025f815480929190611a0c90612e78565b919050555060065f8581526020019081526020015f205f815480929190611a3290612e78565b91905055506040518060a0016040528060025481526020018481526020018381526020015f81526020016001151581525060055f8681526020019081526020015f205f60065f8881526020019081526020015f205481526020019081526020015f205f820151815f01556020820151816001019081611ab19190613452565b506040820151816002019081611ac79190613452565b50606082015181600301556080820151816004015f6101000a81548160ff021916908315150217905550905050600254847fa0343795b24e52d0bf6fad22cf6d2d8ed3d92eb41bbc95e436e48fe918880db985604051611b279190613521565b60405180910390a350505050565b5f8054906101000a900473ffffffffffffffffffffffffffffffffffffffff1673ffffffffffffffffffffffffffffffffffffffff163373ffffffffffffffffffffffffffffffffffffffff1614611bc2576040517f08c379a0000000000000000000000000000000000000000000000000000000008152600401611bb990613014565b60405180910390fd5b806001548111158015611bd457505f81115b611c13576040517f08c379a0000000000000000000000000000000000000000000000000000000008152600401611c0a90612ab9565b60405180910390fd5b60045f8381526020019081526020015f206005015f9054906101000a900460ff1615611c74576040517f08c379a0000000000000000000000000000000000000000000000000000000008152600401611c6b90613619565b60405180910390fd5b60045f8381526020019081526020015f2060050160019054906101000a900460ff1615611cd6576040517f08c379a0000000000000000000000000000000000000000000000000000000008152600401611ccd90613681565b60405180910390fd5b600160045f8481526020019081526020015f2060050160016101000a81548160ff021916908315150217905550817fee088bcc4c9bbd048c9c087916ec26aae94e63151610af8167078ef170e5ae6060405160405180910390a25050565b6060806060836001548111158015611d4b57505f81115b611d8a576040517f08c379a0000000000000000000000000000000000000000000000000000000008152600401611d8190612ab9565b60405180910390fd5b60045f8681526020019081526020015f2060050160019054906101000a900460ff16611deb576040517f08c379a0000000000000000000000000000000000000000000000000000000008152600401611de2906136e9565b60405180910390fd5b5f60065f8781526020019081526020015f205490508067ffffffffffffffff811115611e1a57611e196121de565b5b604051908082528060200260200182016040528015611e4d57816020015b6060815260200190600190039081611e385790505b5094508067ffffffffffffffff811115611e6a57611e696121de565b5b604051908082528060200260200182016040528015611e9d57816020015b6060815260200190600190039081611e885790505b5093508067ffffffffffffffff811115611eba57611eb96121de565b5b604051908082528060200260200182016040528015611ee85781602001602082028036833780820191505090505b5092505f600190505b8181116121025760055f8881526020019081526020015f205f8281526020019081526020015f206001018054611f26906130bf565b80601f0160208091040260200160405190810160405280929190818152602001828054611f52906130bf565b8015611f9d5780601f10611f7457610100808354040283529160200191611f9d565b820191905f5260205f20905b815481529060010190602001808311611f8057829003601f168201915b505050505086600183611fb09190613032565b81518110611fc157611fc0613065565b5b602002602001018190525060055f8881526020019081526020015f205f8281526020019081526020015f206002018054611ffa906130bf565b80601f0160208091040260200160405190810160405280929190818152602001828054612026906130bf565b80156120715780601f1061204857610100808354040283529160200191612071565b820191905f5260205f20905b81548152906001019060200180831161205457829003601f168201915b5050505050856001836120849190613032565b8151811061209557612094613065565b5b602002602001018190525060055f8881526020019081526020015f205f8281526020019081526020015f2060030154846001836120d29190613032565b815181106120e3576120e2613065565b5b60200260200101818152505080806120fa90612e78565b915050611ef1565b5050509193909250565b5f8054906101000a900473ffffffffffffffffffffffffffffffffffffffff1681565b5f604051905090565b5f80fd5b5f80fd5b5f819050919050565b61215281612140565b811461215c575f80fd5b50565b5f8135905061216d81612149565b92915050565b5f6020828403121561218857612187612138565b5b5f6121958482850161215f565b91505092915050565b6121a781612140565b82525050565b5f6020820190506121c05f83018461219e565b92915050565b5f80fd5b5f80fd5b5f601f19601f8301169050919050565b7f4e487b71000000000000000000000000000000000000000000000000000000005f52604160045260245ffd5b612214826121ce565b810181811067ffffffffffffffff82111715612233576122326121de565b5b80604052505050565b5f61224561212f565b9050612251828261220b565b919050565b5f67ffffffffffffffff8211156122705761226f6121de565b5b612279826121ce565b9050602081019050919050565b828183375f83830152505050565b5f6122a66122a184612256565b61223c565b9050828152602081018484840111156122c2576122c16121ca565b5b6122cd848285612286565b509392505050565b5f82601f8301126122e9576122e86121c6565b5b81356122f9848260208601612294565b91505092915050565b5f805f6060848603121561231957612318612138565b5b5f6123268682870161215f565b93505060206123378682870161215f565b925050604084013567ffffffffffffffff8111156123585761235761213c565b5b612364868287016122d5565b9150509250925092565b5f73ffffffffffffffffffffffffffffffffffffffff82169050919050565b5f6123978261236e565b9050919050565b6123a78161238d565b81146123b1575f80fd5b50565b5f813590506123c28161239e565b92915050565b5f80604083850312156123de576123dd612138565b5b5f6123eb858286016123b4565b92505060206123fc8582860161215f565b9150509250929050565b5f8115159050919050565b61241a81612406565b82525050565b5f6020820190506124335f830184612411565b92915050565b5f806040838503121561244f5761244e612138565b5b5f83013567ffffffffffffffff81111561246c5761246b61213c565b5b612478858286016122d5565b9250506020612489858286016123b4565b9150509250929050565b61249c8161238d565b82525050565b5f819050919050565b6124b4816124a2565b82525050565b5f60a0820190506124cd5f83018861219e565b6124da602083018761219e565b6124e76040830186612493565b6124f4606083018561219e565b61250160808301846124ab565b9695505050505050565b5f81519050919050565b5f82825260208201905092915050565b5f819050602082019050919050565b61253d81612140565b82525050565b5f61254e8383612534565b60208301905092915050565b5f602082019050919050565b5f6125708261250b565b61257a8185612515565b935061258583612525565b805f5b838110156125b557815161259c8882612543565b97506125a78361255a565b925050600181019050612588565b5085935050505092915050565b5f81519050919050565b5f82825260208201905092915050565b5f819050602082019050919050565b5f81519050919050565b5f82825260208201905092915050565b5f5b83811015612622578082015181840152602081019050612607565b5f8484015250505050565b5f612637826125eb565b61264181856125f5565b9350612651818560208601612605565b61265a816121ce565b840191505092915050565b5f612670838361262d565b905092915050565b5f602082019050919050565b5f61268e826125c2565b61269881856125cc565b9350836020820285016126aa856125dc565b805f5b858110156126e557848403895281516126c68582612665565b94506126d183612678565b925060208a019950506001810190506126ad565b50829750879550505050505092915050565b5f6060820190508181035f83015261270f8186612566565b905081810360208301526127238185612684565b905081810360408301526127378184612684565b9050949350505050565b5f82825260208201905092915050565b5f61275b826125eb565b6127658185612741565b9350612775818560208601612605565b61277e816121ce565b840191505092915050565b5f60e08201905061279c5f83018a61219e565b81810360208301526127ae8189612751565b905081810360408301526127c28188612751565b90506127d1606083018761219e565b6127de608083018661219e565b6127eb60a0830185612411565b6127f860c0830184612411565b98975050505050505050565b5f805f806080858703121561281c5761281b612138565b5b5f85013567ffffffffffffffff8111156128395761283861213c565b5b612845878288016122d5565b945050602085013567ffffffffffffffff8111156128665761286561213c565b5b612872878288016122d5565b93505060406128838782880161215f565b92505060606128948782880161215f565b91505092959194509250565b5f80604083850312156128b6576128b5612138565b5b5f6128c38582860161215f565b92505060206128d48582860161215f565b9150509250929050565b5f60a0820190506128f15f83018861219e565b81810360208301526129038187612751565b905081810360408301526129178186612751565b9050612926606083018561219e565b6129336080830184612411565b9695505050505050565b5f6020828403121561295257612951612138565b5b5f82013567ffffffffffffffff81111561296f5761296e61213c565b5b61297b848285016122d5565b91505092915050565b5f6020820190506129975f830184612493565b92915050565b5f805f606084860312156129b4576129b3612138565b5b5f6129c18682870161215f565b935050602084013567ffffffffffffffff8111156129e2576129e161213c565b5b6129ee868287016122d5565b925050604084013567ffffffffffffffff811115612a0f57612a0e61213c565b5b612a1b868287016122d5565b9150509250925092565b5f6060820190508181035f830152612a3d8186612684565b90508181036020830152612a518185612684565b90508181036040830152612a658184612566565b9050949350505050565b7f456c656374696f6e20646f6573206e6f742065786973740000000000000000005f82015250565b5f612aa3601783612741565b9150612aae82612a6f565b602082019050919050565b5f6020820190508181035f830152612ad081612a97565b9050919050565b7f456c656374696f6e206973206e6f7420616374697665000000000000000000005f82015250565b5f612b0b601683612741565b9150612b1682612ad7565b602082019050919050565b5f6020820190508181035f830152612b3881612aff565b9050919050565b7f456c656374696f6e20686173206e6f74207374617274656400000000000000005f82015250565b5f612b73601883612741565b9150612b7e82612b3f565b602082019050919050565b5f6020820190508181035f830152612ba081612b67565b9050919050565b7f456c656374696f6e2068617320656e64656400000000000000000000000000005f82015250565b5f612bdb601283612741565b9150612be682612ba7565b602082019050919050565b5f6020820190508181035f830152612c0881612bcf565b9050919050565b5f81905092915050565b5f612c23826125eb565b612c2d8185612c0f565b9350612c3d818560208601612605565b80840191505092915050565b5f612c548284612c19565b915081905092915050565b7f566f746572206e6f742072656769737465726564206f7220696e76616c6964205f8201527f6164647265737300000000000000000000000000000000000000000000000000602082015250565b5f612cb9602783612741565b9150612cc482612c5f565b604082019050919050565b5f6020820190508181035f830152612ce681612cad565b9050919050565b7f566f7465722068617320616c726561647920766f74656420696e2074686973205f8201527f656c656374696f6e000000000000000000000000000000000000000000000000602082015250565b5f612d47602883612741565b9150612d5282612ced565b604082019050919050565b5f6020820190508181035f830152612d7481612d3b565b9050919050565b7f496e76616c69642063616e6469646174650000000000000000000000000000005f82015250565b5f612daf601183612741565b9150612dba82612d7b565b602082019050919050565b5f6020820190508181035f830152612ddc81612da3565b9050919050565b7f43616e646964617465206973206e6f74206163746976650000000000000000005f82015250565b5f612e17601783612741565b9150612e2282612de3565b602082019050919050565b5f6020820190508181035f830152612e4481612e0b565b9050919050565b7f4e487b71000000000000000000000000000000000000000000000000000000005f52601160045260245ffd5b5f612e8282612140565b91507fffffffffffffffffffffffffffffffffffffffffffffffffffffffffffffffff8203612eb457612eb3612e4b565b5b600182019050919050565b5f819050919050565b612ed9612ed482612140565b612ebf565b82525050565b5f8160601b9050919050565b5f612ef582612edf565b9050919050565b5f612f0682612eeb565b9050919050565b612f1e612f198261238d565b612efc565b82525050565b5f612f2f8287612ec8565b602082019150612f3f8286612ec8565b602082019150612f4f8285612f0d565b601482019150612f5f8284612ec8565b60208201915081905095945050505050565b5f612f7b82612140565b9150612f8683612140565b9250828201905080821115612f9e57612f9d612e4b565b5b92915050565b7f4f6e6c792061646d696e2063616e20706572666f726d207468697320616374695f8201527f6f6e000000000000000000000000000000000000000000000000000000000000602082015250565b5f612ffe602283612741565b915061300982612fa4565b604082019050919050565b5f6020820190508181035f83015261302b81612ff2565b9050919050565b5f61303c82612140565b915061304783612140565b925082820390508181111561305f5761305e612e4b565b5b92915050565b7f4e487b71000000000000000000000000000000000000000000000000000000005f52603260045260245ffd5b7f4e487b71000000000000000000000000000000000000000000000000000000005f52602260045260245ffd5b5f60028204905060018216806130d657607f821691505b6020821081036130e9576130e8613092565b5b50919050565b7f456c656374696f6e20697320616c7265616479206163746976650000000000005f82015250565b5f613123601a83612741565b915061312e826130ef565b602082019050919050565b5f6020820190508181035f83015261315081613117565b9050919050565b7f4e6f2063616e64696461746573207265676973746572656400000000000000005f82015250565b5f61318b601883612741565b915061319682613157565b602082019050919050565b5f6020820190508181035f8301526131b88161317f565b9050919050565b7f53746172742074696d65206d757374206265206265666f726520656e642074695f8201527f6d65000000000000000000000000000000000000000000000000000000000000602082015250565b5f613219602283612741565b9150613224826131bf565b604082019050919050565b5f6020820190508181035f8301526132468161320d565b9050919050565b7f456e642074696d65206d75737420626520696e207468652066757475726500005f82015250565b5f613281601e83612741565b915061328c8261324d565b602082019050919050565b5f6020820190508181035f8301526132ae81613275565b9050919050565b5f819050815f5260205f209050919050565b5f6020601f8301049050919050565b5f82821b905092915050565b5f600883026133117fffffffffffffffffffffffffffffffffffffffffffffffffffffffffffffffff826132d6565b61331b86836132d6565b95508019841693508086168417925050509392505050565b5f819050919050565b5f61335661335161334c84612140565b613333565b612140565b9050919050565b5f819050919050565b61336f8361333c565b61338361337b8261335d565b8484546132e2565b825550505050565b5f90565b61339761338b565b6133a2818484613366565b505050565b5b818110156133c5576133ba5f8261338f565b6001810190506133a8565b5050565b601f82111561340a576133db816132b5565b6133e4846132c7565b810160208510156133f3578190505b6134076133ff856132c7565b8301826133a7565b50505b505050565b5f82821c905092915050565b5f61342a5f198460080261340f565b1980831691505092915050565b5f613442838361341b565b9150826002028217905092915050565b61345b826125eb565b67ffffffffffffffff811115613474576134736121de565b5b61347e82546130bf565b6134898282856133c9565b5f60209050601f8311600181146134ba575f84156134a8578287015190505b6134b28582613437565b865550613519565b601f1984166134c8866132b5565b5f5b828110156134ef578489015182556001820191506020850194506020810190506134ca565b8683101561350c5784890151613508601f89168261341b565b8355505b6001600288020188555050505b505050505050565b5f6020820190508181035f8301526135398184612751565b905092915050565b7f43616e6e6f74206164642063616e6469646174657320746f20616374697665205f8201527f656c656374696f6e000000000000000000000000000000000000000000000000602082015250565b5f61359b602883612741565b91506135a682613541565b604082019050919050565b5f6020820190508181035f8301526135c88161358f565b9050919050565b7f456c656374696f6e206d75737420626520656e646564206669727374000000005f82015250565b5f613603601c83612741565b915061360e826135cf565b602082019050919050565b5f6020820190508181035f830152613630816135f7565b9050919050565b7f526573756c747320616c7265616479207075626c6973686564000000000000005f82015250565b5f61366b601983612741565b915061367682613637565b602082019050919050565b5f6020820190508181035f8301526136988161365f565b9050919050565b7f526573756c7473206e6f7420796574207075626c6973686564000000000000005f82015250565b5f6136d3601983612741565b91506136de8261369f565b602082019050919050565b5f6020820190508181035f830152613700816136c7565b905091905056fea2646970667358221220221389e4b226439b3d8f2a659df50ea681cd1a71f92d6381a7ba64742c92c7dc64736f6c63430008150033",
  "immutableReferences": {},
  "source": "pragma solidity ^0.8.0;\r\n\r\ncontract VotingSystem {\r\n    struct Candidate {\r\n        uint256 id;\r\n        string name;\r\n        string party;\r\n        uint256 voteCount;\r\n        bool isActive;\r\n    }\r\n    \r\n    struct Election {\r\n        uint256 id;\r\n        string title;\r\n        string description;\r\n        uint256 startTime;\r\n        uint256 endTime;\r\n        bool isActive;\r\n        bool resultsPublished;\r\n    }\r\n    \r\n    struct Vote {\r\n        uint256 electionId;\r\n        uint256 candidateId;\r\n        address voter;\r\n        uint256 timestamp;\r\n        bytes32 voteHash;\r\n    }\r\n    \r\n    address public admin;\r\n    uint256 public electionCounter;\r\n    uint256 public candidateCounter;\r\n    uint256 public voteCounter;\r\n    \r\n    mapping(uint256 => Election) public elections;\r\n    mapping(uint256 => mapping(uint256 => Candidate)) public candidates;\r\n    mapping(uint256 => uint256) public electionCandidateCount;\r\n    mapping(address => mapping(uint256 => bool)) public hasVoted;\r\n    mapping(uint256 => Vote) public votes;\r\n    mapping(string => address) public voterAddresses; // nationalId => address\r\n    \r\n    event ElectionCreated(uint256 indexed electionId, string title);\r\n    event CandidateRegistered(uint256 indexed electionId, uint256 indexed candidateId, string name);\r\n    event VoteCast(uint256 indexed electionId, uint256 indexed candidateId, address indexed voter);\r\n    event ElectionStarted(uint256 indexed electionId);\r\n    event ElectionEnded(uint256 indexed electionId);\r\n    event ResultsPublished(uint256 indexed electionId);\r\n    \r\n    modifier onlyAdmin() {\r\n        require(msg.sender == admin, \"Only admin can perform this action\");\r\n        _;\r\n    }\r\n    \r\n    modifier electionExists(uint256 _electionId) {\r\n        require(_electionId <= electionCounter && _electionId > 0, \"Election does not exist\");\r\n        _;\r\n    }\r\n    \r\n    modifier electionActive(uint256 _electionId) {\r\n        require(elections[_electionId].isActive, \"Election is not active\");\r\n        require(block.timestamp >= elections[_electionId].startTime, \"Election has not started\");\r\n        require(block.timestamp <= elections[_electionId].endTime, \"Election has ended\");\r\n        _;\r\n    }\r\n    \r\n    constructor() {\r\n        admin = msg.sender;\r\n        electionCounter = 0;\r\n        candidateCounter = 0;\r\n        voteCounter = 0;\r\n    }\r\n    \r\n    function createElection(\r\n        string memory _title,\r\n        string memory _description,\r\n        uint256 _startTime,\r\n        uint256 _endTime\r\n    ) public onlyAdmin {\r\n        require(_startTime < _endTime, \"Start time must be before end time\");\r\n        require(_endTime > block.timestamp, \"End time must be in the future\");\r\n        \r\n        electionCounter++;\r\n        elections[electionCounter] = Election({\r\n            id: electionCounter,\r\n            title: _title,\r\n            description: _description,\r\n            startTime: _startTime,\r\n            endTime: _endTime,\r\n            isActive: false,\r\n            resultsPublished: false\r\n        });\r\n        \r\n        emit ElectionCreated(electionCounter, _title);\r\n    }\r\n    \r\n    function registerCandidate(\r\n        uint256 _electionId,\r\n        string memory _name,\r\n        string memory _party\r\n    ) public onlyAdmin electionExists(_electionId) {\r\n        require(!elections[_electionId].isActive, \"Cannot add candidates to active election\");\r\n        \r\n        candidateCounter++;\r\n        electionCandidateCount[_electionId]++;\r\n        \r\n        candidates[_electionId][electionCandidateCount[_electionId]] = Candidate({\r\n            id: candidateCounter,\r\n            name: _name,\r\n            party: _party,\r\n            voteCount: 0,\r\n            isActive: true\r\n        });\r\n        \r\n        emit CandidateRegistered(_electionId, candidateCounter, _name);\r\n    }\r\n    \r\n    function startElection(uint256 _electionId) public onlyAdmin electionExists(_electionId) {\r\n        require(!elections[_electionId].isActive, \"Election is already active\");\r\n        require(electionCandidateCount[_electionId] > 0, \"No candidates registered\");\r\n        \r\n        elections[_electionId].isActive = true;\r\n        emit ElectionStarted(_electionId);\r\n    }\r\n    \r\n    function endElection(uint256 _electionId) public onlyAdmin electionExists(_electionId) {\r\n        require(elections[_electionId].isActive, \"Election is not active\");\r\n        \r\n        elections[_electionId].isActive = false;\r\n        emit ElectionEnded(_electionId);\r\n    }\r\n    \r\n    function registerVoter(string memory _nationalId, address _voterAddress) public onlyAdmin {\r\n        voterAddresses[_nationalId] = _voterAddress;\r\n    }\r\n    \r\n    function castVote(\r\n        uint256 _electionId,\r\n        uint256 _candidateId,\r\n        string memory _nationalId\r\n    ) public electionExists(_electionId) electionActive(_electionId) {\r\n        require(voterAddresses[_nationalId] == msg.sender, \"Voter not registered or invalid address\");\r\n        require(!hasVoted[msg.sender][_electionId], \"Voter has already voted in this election\");\r\n        require(_candidateId <= electionCandidateCount[_electionId] && _candidateId > 0, \"Invalid candidate\");\r\n        require(candidates[_electionId][_candidateId].isActive, \"Candidate is not active\");\r\n        \r\n        // Mark voter as having voted\r\n        hasVoted[msg.sender][_electionId] = true;\r\n        \r\n        // Increment candidate vote count\r\n        candidates[_electionId][_candidateId].voteCount++;\r\n        \r\n        // Create vote record\r\n        voteCounter++;\r\n        bytes32 voteHash = keccak256(abi.encodePacked(_electionId, _candidateId, msg.sender, block.timestamp));\r\n        \r\n        votes[voteCounter] = Vote({\r\n            electionId: _electionId,\r\n            candidateId: _candidateId,\r\n            voter: msg.sender,\r\n            timestamp: block.timestamp,\r\n            voteHash: voteHash\r\n        });\r\n        \r\n        emit VoteCast(_electionId, _candidateId, msg.sender);\r\n    }\r\n    \r\n    function publishResults(uint256 _electionId) public onlyAdmin electionExists(_electionId) {\r\n        require(!elections[_electionId].isActive, \"Election must be ended first\");\r\n        require(!elections[_electionId].resultsPublished, \"Results already published\");\r\n        \r\n        elections[_electionId].resultsPublished = true;\r\n        emit ResultsPublished(_electionId);\r\n    }\r\n    \r\n    function getElectionResults(uint256 _electionId) public view electionExists(_electionId) returns (\r\n        string[] memory candidateNames,\r\n        string[] memory candidateParties,\r\n        uint256[] memory voteCounts\r\n    ) {\r\n        require(elections[_electionId].resultsPublished, \"Results not yet published\");\r\n        \r\n        uint256 candidateCount = electionCandidateCount[_electionId];\r\n        candidateNames = new string[](candidateCount);\r\n        candidateParties = new string[](candidateCount);\r\n        voteCounts = new uint256[](candidateCount);\r\n        \r\n        for (uint256 i = 1; i <= candidateCount; i++) {\r\n            candidateNames[i-1] = candidates[_electionId][i].name;\r\n            candidateParties[i-1] = candidates[_electionId][i].party;\r\n            voteCounts[i-1] = candidates[_electionId][i].voteCount;\r\n        }\r\n    }\r\n    \r\n    function getElectionCandidates(uint256 _electionId) public view electionExists(_electionId) returns (\r\n        uint256[] memory candidateIds,\r\n        string[] memory candidateNames,\r\n        string[] memory candidateParties\r\n    ) {\r\n        uint256 candidateCount = electionCandidateCount[_electionId];\r\n        candidateIds = new uint256[](candidateCount);\r\n        candidateNames = new string[](candidateCount);\r\n        candidateParties = new string[](candidateCount);\r\n        \r\n        for (uint256 i = 1; i <= candidateCount; i++) {\r\n            candidateIds[i-1] = candidates[_electionId][i].id;\r\n            candidateNames[i-1] = candidates[_electionId][i].name;\r\n            candidateParties[i-1] = candidates[_electionId][i].party;\r\n        }\r\n    }\r\n    \r\n    function hasVoterVoted(address _voter, uint256 _electionId) public view returns (bool) {\r\n        return hasVoted[_voter][_electionId];\r\n    }\r\n    \r\n    function getTotalVotes(uint256 _electionId) public view electionExists(_electionId) returns (uint256) {\r\n        uint256 totalVotes = 0;\r\n        uint256 candidateCount = electionCandidateCount[_electionId];\r\n        \r\n        for (uint256 i = 1; i <= candidateCount; i++) {\r\n            totalVotes += candidates[_electionId][i].voteCount;\r\n        }\r\n        \r\n        return totalVotes;\r\n    }\r\n}\r\n",
  "sourcePath": "C:\\Users\\KIREHE TSS\\Downloads\\Voting_System\\Face-Recognition\\contracts\\VotingContract.sol",
  "compiler": {
    "name": "solc",
    "version": "0.8.21+commit.d9974bed.Emscripten.clang"
  },
  "schemaVersion": "3.4.16",
  "updatedAt": "2025-07-19T09:17:31.716Z",
  "devdoc": {
    "kind": "dev",
    "methods": {},
    "version": 1
  },
  "userdoc": {
    "kind": "user",
    "methods": {},
    "version": 1
  }
}